{
  "_format": "hh-sol-artifact-1",
  "contractName": "Voting",
  "sourceName": "contracts/Voting.sol",
  "abi": [
    {
      "inputs": [
        {
          "internalType": "address[5]",
          "name": "voterAddresses",
          "type": "address[5]"
        }
      ],
      "stateMutability": "nonpayable",
      "type": "constructor"
    },
    {
      "anonymous": false,
      "inputs": [
        {
          "indexed": true,
          "internalType": "address",
          "name": "voter",
          "type": "address"
        },
        {
          "indexed": false,
          "internalType": "uint8",
          "name": "candidateIndex",
          "type": "uint8"
        }
      ],
      "name": "VoteCast",
      "type": "event"
    },
    {
      "anonymous": false,
      "inputs": [],
      "name": "VotingEnded",
      "type": "event"
    },
    {
      "inputs": [
        {
          "internalType": "string",
          "name": "name",
          "type": "string"
        }
      ],
      "name": "addCandidate",
      "outputs": [],
      "stateMutability": "nonpayable",
      "type": "function"
    },
    {
      "inputs": [
        {
          "internalType": "uint256",
          "name": "",
          "type": "uint256"
        }
      ],
      "name": "candidates",
      "outputs": [
        {
          "internalType": "string",
          "name": "name",
          "type": "string"
        },
        {
          "internalType": "uint64",
          "name": "voteCount",
          "type": "uint64"
        }
      ],
      "stateMutability": "view",
      "type": "function"
    },
    {
      "inputs": [],
      "name": "endVoting",
      "outputs": [],
      "stateMutability": "nonpayable",
      "type": "function"
    },
    {
      "inputs": [],
      "name": "getResults",
      "outputs": [
        {
          "components": [
            {
              "internalType": "string",
              "name": "name",
              "type": "string"
            },
            {
              "internalType": "uint64",
              "name": "voteCount",
              "type": "uint64"
            }
          ],
          "internalType": "struct Voting.Candidate[]",
          "name": "",
          "type": "tuple[]"
        }
      ],
      "stateMutability": "view",
      "type": "function"
    },
    {
      "inputs": [
        {
          "internalType": "address",
          "name": "",
          "type": "address"
        }
      ],
      "name": "isVoter",
      "outputs": [
        {
          "internalType": "bool",
          "name": "",
          "type": "bool"
        }
      ],
      "stateMutability": "view",
      "type": "function"
    },
    {
      "inputs": [],
      "name": "owner",
      "outputs": [
        {
          "internalType": "address",
          "name": "",
          "type": "address"
        }
      ],
      "stateMutability": "view",
      "type": "function"
    },
    {
      "inputs": [
        {
          "internalType": "uint8",
          "name": "candidateIndex",
          "type": "uint8"
        }
      ],
      "name": "vote",
      "outputs": [],
      "stateMutability": "nonpayable",
      "type": "function"
    },
    {
      "inputs": [
        {
          "internalType": "uint256",
          "name": "",
          "type": "uint256"
        }
      ],
      "name": "voters",
      "outputs": [
        {
          "internalType": "address",
          "name": "addr",
          "type": "address"
        },
        {
          "internalType": "bool",
          "name": "hasVoted",
          "type": "bool"
        }
      ],
      "stateMutability": "view",
      "type": "function"
    },
    {
      "inputs": [],
      "name": "votingOpen",
      "outputs": [
        {
          "internalType": "bool",
          "name": "",
          "type": "bool"
        }
      ],
      "stateMutability": "view",
      "type": "function"
    }
  ],
  "bytecode": "0x60806040526001600360146101000a81548160ff02191690831515021790555034801561002b57600080fd5b5060405161195c38038061195c833981810160405281019061004d91906103a5565b33600360006101000a81548173ffffffffffffffffffffffffffffffffffffffff021916908373ffffffffffffffffffffffffffffffffffffffff16021790555060005b60058110156101ea57600060405180604001604052808484600581106100ba576100b96103d2565b5b602002015173ffffffffffffffffffffffffffffffffffffffff168152602001600015158152509080600181540180825580915050600190039060005260206000200160009091909190915060008201518160000160006101000a81548173ffffffffffffffffffffffffffffffffffffffff021916908373ffffffffffffffffffffffffffffffffffffffff16021790555060208201518160000160146101000a81548160ff02191690831515021790555050506001806000848460058110610187576101866103d2565b5b602002015173ffffffffffffffffffffffffffffffffffffffff1673ffffffffffffffffffffffffffffffffffffffff16815260200190815260200160002060006101000a81548160ff0219169083151502179055508080600101915050610091565b5050610401565b6000604051905090565b600080fd5b600080fd5b6000601f19601f8301169050919050565b7f4e487b7100000000000000000000000000000000000000000000000000000000600052604160045260246000fd5b61024e82610205565b810181811067ffffffffffffffff8211171561026d5761026c610216565b5b80604052505050565b60006102806101f1565b905061028c8282610245565b919050565b600067ffffffffffffffff8211156102ac576102ab610216565b5b602082029050919050565b600080fd5b600073ffffffffffffffffffffffffffffffffffffffff82169050919050565b60006102e7826102bc565b9050919050565b6102f7816102dc565b811461030257600080fd5b50565b600081519050610314816102ee565b92915050565b600061032d61032884610291565b610276565b90508060208402830185811115610347576103466102b7565b5b835b81811015610370578061035c8882610305565b845260208401935050602081019050610349565b5050509392505050565b600082601f83011261038f5761038e610200565b5b600561039c84828561031a565b91505092915050565b600060a082840312156103bb576103ba6101fb565b5b60006103c98482850161037a565b91505092915050565b7f4e487b7100000000000000000000000000000000000000000000000000000000600052603260045260246000fd5b61154c806104106000396000f3fe608060405234801561001057600080fd5b50600436106100935760003560e01c8063a7771ee311610066578063a7771ee314610121578063a95824b414610151578063b3f98adc1461016f578063c3403ddf1461018b578063da58c7d91461019557610093565b80633477ee2e14610098578063462e91ec146100c95780634717f97c146100e55780638da5cb5b14610103575b600080fd5b6100b260048036038101906100ad91906109e2565b6101c6565b6040516100c0929190610ac2565b60405180910390f35b6100e360048036038101906100de9190610c27565b610296565b005b6100ed6103bb565b6040516100fa9190610dc8565b60405180910390f35b61010b6104de565b6040516101189190610e2b565b60405180910390f35b61013b60048036038101906101369190610e72565b610504565b6040516101489190610eba565b60405180910390f35b610159610524565b6040516101669190610eba565b60405180910390f35b61018960048036038101906101849190610f0e565b610537565b005b610193610862565b005b6101af60048036038101906101aa91906109e2565b61093b565b6040516101bd929190610f3b565b60405180910390f35b600281815481106101d657600080fd5b90600052602060002090600202016000915090508060000180546101f990610f93565b80601f016020809104026020016040519081016040528092919081815260200182805461022590610f93565b80156102725780601f1061024757610100808354040283529160200191610272565b820191906000526020600020905b81548152906001019060200180831161025557829003601f168201915b5050505050908060010160009054906101000a900467ffffffffffffffff16905082565b600360009054906101000a900473ffffffffffffffffffffffffffffffffffffffff1673ffffffffffffffffffffffffffffffffffffffff163373ffffffffffffffffffffffffffffffffffffffff1614610326576040517f08c379a000000000000000000000000000000000000000000000000000000000815260040161031d90611010565b60405180910390fd5b60026040518060400160405280838152602001600067ffffffffffffffff168152509080600181540180825580915050600190039060005260206000209060020201600090919091909150600082015181600001908161038691906111dc565b5060208201518160010160006101000a81548167ffffffffffffffff021916908367ffffffffffffffff160217905550505050565b60606002805480602002602001604051908101604052809291908181526020016000905b828210156104d5578382906000526020600020906002020160405180604001604052908160008201805461041290610f93565b80601f016020809104026020016040519081016040528092919081815260200182805461043e90610f93565b801561048b5780601f106104605761010080835404028352916020019161048b565b820191906000526020600020905b81548152906001019060200180831161046e57829003601f168201915b505050505081526020016001820160009054906101000a900467ffffffffffffffff1667ffffffffffffffff1667ffffffffffffffff1681525050815260200190600101906103df565b50505050905090565b600360009054906101000a900473ffffffffffffffffffffffffffffffffffffffff1681565b60016020528060005260406000206000915054906101000a900460ff1681565b600360149054906101000a900460ff1681565b600360149054906101000a900460ff16610586576040517f08c379a000000000000000000000000000000000000000000000000000000000815260040161057d906112fa565b60405180910390fd5b600160003373ffffffffffffffffffffffffffffffffffffffff1673ffffffffffffffffffffffffffffffffffffffff16815260200190815260200160002060009054906101000a900460ff16610612576040517f08c379a000000000000000000000000000000000000000000000000000000000815260040161060990611366565b60405180910390fd5b6002805490508160ff161061065c576040517f08c379a0000000000000000000000000000000000000000000000000000000008152600401610653906113d2565b60405180910390fd5b60005b60008054905081101561085d573373ffffffffffffffffffffffffffffffffffffffff1660008281548110610697576106966113f2565b5b9060005260206000200160000160009054906101000a900473ffffffffffffffffffffffffffffffffffffffff1673ffffffffffffffffffffffffffffffffffffffff160361085057600081815481106106f4576106f36113f2565b5b9060005260206000200160000160149054906101000a900460ff161561074f576040517f08c379a00000000000000000000000000000000000000000000000000000000081526004016107469061146d565b60405180910390fd5b600160008281548110610765576107646113f2565b5b9060005260206000200160000160146101000a81548160ff02191690831515021790555060028260ff16815481106107a05761079f6113f2565b5b9060005260206000209060020201600101600081819054906101000a900467ffffffffffffffff16809291906107d5906114bc565b91906101000a81548167ffffffffffffffff021916908367ffffffffffffffff160217905550503373ffffffffffffffffffffffffffffffffffffffff167fefffa0c001f10a86d936643c098510eba656ffab1d0c5165822b79d4c895e88f8360405161084291906114fb565b60405180910390a25061085f565b808060010191505061065f565b505b50565b600360009054906101000a900473ffffffffffffffffffffffffffffffffffffffff1673ffffffffffffffffffffffffffffffffffffffff163373ffffffffffffffffffffffffffffffffffffffff16146108f2576040517f08c379a00000000000000000000000000000000000000000000000000000000081526004016108e990611010565b60405180910390fd5b6000600360146101000a81548160ff0219169083151502179055507f7a19ed057db79e3c2fa0b97a54b43bef4fce74b31bb6c01af514b9a18a7f70ab60405160405180910390a1565b6000818154811061094b57600080fd5b906000526020600020016000915090508060000160009054906101000a900473ffffffffffffffffffffffffffffffffffffffff16908060000160149054906101000a900460ff16905082565b6000604051905090565b600080fd5b600080fd5b6000819050919050565b6109bf816109ac565b81146109ca57600080fd5b50565b6000813590506109dc816109b6565b92915050565b6000602082840312156109f8576109f76109a2565b5b6000610a06848285016109cd565b91505092915050565b600081519050919050565b600082825260208201905092915050565b60005b83811015610a49578082015181840152602081019050610a2e565b60008484015250505050565b6000601f19601f8301169050919050565b6000610a7182610a0f565b610a7b8185610a1a565b9350610a8b818560208601610a2b565b610a9481610a55565b840191505092915050565b600067ffffffffffffffff82169050919050565b610abc81610a9f565b82525050565b60006040820190508181036000830152610adc8185610a66565b9050610aeb6020830184610ab3565b9392505050565b600080fd5b600080fd5b7f4e487b7100000000000000000000000000000000000000000000000000000000600052604160045260246000fd5b610b3482610a55565b810181811067ffffffffffffffff82111715610b5357610b52610afc565b5b80604052505050565b6000610b66610998565b9050610b728282610b2b565b919050565b600067ffffffffffffffff821115610b9257610b91610afc565b5b610b9b82610a55565b9050602081019050919050565b82818337600083830152505050565b6000610bca610bc584610b77565b610b5c565b905082815260208101848484011115610be657610be5610af7565b5b610bf1848285610ba8565b509392505050565b600082601f830112610c0e57610c0d610af2565b5b8135610c1e848260208601610bb7565b91505092915050565b600060208284031215610c3d57610c3c6109a2565b5b600082013567ffffffffffffffff811115610c5b57610c5a6109a7565b5b610c6784828501610bf9565b91505092915050565b600081519050919050565b600082825260208201905092915050565b6000819050602082019050919050565b600082825260208201905092915050565b6000610cb882610a0f565b610cc28185610c9c565b9350610cd2818560208601610a2b565b610cdb81610a55565b840191505092915050565b610cef81610a9f565b82525050565b60006040830160008301518482036000860152610d128282610cad565b9150506020830151610d276020860182610ce6565b508091505092915050565b6000610d3e8383610cf5565b905092915050565b6000602082019050919050565b6000610d5e82610c70565b610d688185610c7b565b935083602082028501610d7a85610c8c565b8060005b85811015610db65784840389528151610d978582610d32565b9450610da283610d46565b925060208a01995050600181019050610d7e565b50829750879550505050505092915050565b60006020820190508181036000830152610de28184610d53565b905092915050565b600073ffffffffffffffffffffffffffffffffffffffff82169050919050565b6000610e1582610dea565b9050919050565b610e2581610e0a565b82525050565b6000602082019050610e406000830184610e1c565b92915050565b610e4f81610e0a565b8114610e5a57600080fd5b50565b600081359050610e6c81610e46565b92915050565b600060208284031215610e8857610e876109a2565b5b6000610e9684828501610e5d565b91505092915050565b60008115159050919050565b610eb481610e9f565b82525050565b6000602082019050610ecf6000830184610eab565b92915050565b600060ff82169050919050565b610eeb81610ed5565b8114610ef657600080fd5b50565b600081359050610f0881610ee2565b92915050565b600060208284031215610f2457610f236109a2565b5b6000610f3284828501610ef9565b91505092915050565b6000604082019050610f506000830185610e1c565b610f5d6020830184610eab565b9392505050565b7f4e487b7100000000000000000000000000000000000000000000000000000000600052602260045260246000fd5b60006002820490506001821680610fab57607f821691505b602082108103610fbe57610fbd610f64565b5b50919050565b7f53616465636520736168696269207961706162696c6972000000000000000000600082015250565b6000610ffa601783610a1a565b915061100582610fc4565b602082019050919050565b6000602082019050818103600083015261102981610fed565b9050919050565b60008190508160005260206000209050919050565b60006020601f8301049050919050565b600082821b905092915050565b6000600883026110927fffffffffffffffffffffffffffffffffffffffffffffffffffffffffffffffff82611055565b61109c8683611055565b95508019841693508086168417925050509392505050565b6000819050919050565b60006110d96110d46110cf846109ac565b6110b4565b6109ac565b9050919050565b6000819050919050565b6110f3836110be565b6111076110ff826110e0565b848454611062565b825550505050565b600090565b61111c61110f565b6111278184846110ea565b505050565b5b8181101561114b57611140600082611114565b60018101905061112d565b5050565b601f8211156111905761116181611030565b61116a84611045565b81016020851015611179578190505b61118d61118585611045565b83018261112c565b50505b505050565b600082821c905092915050565b60006111b360001984600802611195565b1980831691505092915050565b60006111cc83836111a2565b9150826002028217905092915050565b6111e582610a0f565b67ffffffffffffffff8111156111fe576111fd610afc565b5b6112088254610f93565b61121382828561114f565b600060209050601f8311600181146112465760008415611234578287015190505b61123e85826111c0565b8655506112a6565b601f19841661125486611030565b60005b8281101561127c57848901518255600182019150602085019450602081019050611257565b868310156112995784890151611295601f8916826111a2565b8355505b6001600288020188555050505b505050505050565b7f4f796c616d61206b6170616c6900000000000000000000000000000000000000600082015250565b60006112e4600d83610a1a565b91506112ef826112ae565b602082019050919050565b60006020820190508181036000830152611313816112d7565b9050919050565b7f4f79206b756c6c616e6d61207965746b696e697a20796f6b0000000000000000600082015250565b6000611350601883610a1a565b915061135b8261131a565b602082019050919050565b6000602082019050818103600083015261137f81611343565b9050919050565b7f476563657273697a206164617900000000000000000000000000000000000000600082015250565b60006113bc600d83610a1a565b91506113c782611386565b602082019050919050565b600060208201905081810360008301526113eb816113af565b9050919050565b7f4e487b7100000000000000000000000000000000000000000000000000000000600052603260045260246000fd5b7f5a6174656e206f79206b756c6c616e64696e697a000000000000000000000000600082015250565b6000611457601483610a1a565b915061146282611421565b602082019050919050565b600060208201905081810360008301526114868161144a565b9050919050565b7f4e487b7100000000000000000000000000000000000000000000000000000000600052601160045260246000fd5b60006114c782610a9f565b915067ffffffffffffffff82036114e1576114e061148d565b5b600182019050919050565b6114f581610ed5565b82525050565b600060208201905061151060008301846114ec565b9291505056fea2646970667358221220413b879540bf0dc3f1c0c046381f5b8e525622d5353252a1d1860fe314fdc01664736f6c634300081d0033",
  "linkReferences": {},
  "deployedLinkReferences": {}
}